:100000000C942A000C9447000C9447000C94470071
:100010000C9447000C9447000C9447000C94470044
:100020000C9447000C9447000C9447000C94470034
:100030000C9447000C9447000C9447000C94470024
:100040000C9447000C9447000C9447000C94470014
:100050000C94470011241FBECFE5D8E0DEBFCDBF12
:1000600011E0A0E6B0E0E8E9F7E202C005900D92E9
:10007000AC3AB107D9F711E0ACEAB1E001C01D928A
:10008000A13BB107E1F70E94E2120C94CA130C9451
:100090000000EF92FF920F931F937B018C0120E0F1
:1000A00030E040E05FE40E94F50388238CF0C80153
:1000B000B70120E030E040E05FE40E94C1010E940F
:1000C00055049B01AC01205030404040504806C0D0
:1000D000C801B7010E9455049B01AC01B901CA01D6
:1000E0001F910F91FF90EF900895A0E0B0E0EBE733
:1000F000F0E00C946213DC012B01FA019C91923028
:1001000008F439C1EB018881823008F433C194309E
:1001100069F4843009F02FC111969C91119789815F
:10012000981709F428C1A3EAB0E025C1843009F486
:1001300021C18230A9F4923009F01DC19A01AD01AC
:1001400088E0EA010990AE01E90109929E0181501F
:10015000C1F7E201898111969C918923818308C1AD
:10016000923009F407C112962D903C901397EB0141
:100170008A819B811496AD90BD90CD90DC901797AD
:10018000EC80FD800E811F819101281B390BB90184
:1001900037FF04C066277727621B730B6032710537
:1001A0000CF061C0121613066CF537014801062EDB
:1001B00004C096948794779467940A94D2F721E0C8
:1001C00030E040E050E004C0220F331F441F551FB1
:1001D0006A95D2F721503040404050402E213F21B7
:1001E00040235123211531054105510521F021E01E
:1001F00030E040E050E079018A01E628F72808293C
:1002000019293CC0232BD1F1260E371E350146019A
:10021000062E04C096948794779467940A94D2F734
:1002200021E030E040E050E004C0220F331F441FC3
:10023000551F6A95D2F721503040404050402A2146
:100240003B214C215D21211531054105510521F04E
:1002500021E030E040E050E059016A01A628B728CB
:10026000C828D9280BC0821593052CF01C01AA249C
:10027000BB24650103C0EE24FF24870111969C91E5
:10028000D20111968C91981709F445C0992339F041
:10029000A80197012A193B094C095D0906C0A6016E
:1002A00095012E193F09400B510B57FD08C01182D3
:1002B0003382228224833583468357831DC081E0A5
:1002C00081833382228288279927DC01821B930B4A
:1002D000A40BB50B84839583A683B7830DC0220F2F
:1002E000331F441F551F24833583468357838281E0
:1002F000938101979383828324813581468157813D
:10030000DA01C9010197A109B1098F5F9F4FAF4F72
:10031000BF4328F30BC0918333822282EA0CFB1C7B
:100320000C1D1D1DE482F5820683178383E0808304
:10033000248135814681578157FF1AC0C901AA27F8
:1003400097FDA095BA2F81709070A070B0705695EF
:10035000479537952795822B932BA42BB52B848318
:100360009583A683B7838281938101969383828349
:10037000DF0101C0D201CD01CDB7DEB7E2E10C94BF
:100380007E13A0E2B0E0E7ECF1E00C946E13698319
:100390007A838B839C832D833E834F835887E9E048
:1003A000EE2EF12CEC0EFD1ECE010196B7010E943F
:1003B00046068E010F5E1F4FCE010596B8010E94C2
:1003C00046068A8991E089278A8BC701B801AE0168
:1003D000475E5F4F0E9475000E947105A096E6E09F
:1003E0000C948A13A0E2B0E0E8EFF1E00C946E13F5
:1003F00069837A838B839C832D833E834F835887C5
:10040000F9E0EF2EF12CEC0EFD1ECE010196B701A6
:100410000E9446068E010F5E1F4FCE010596B80161
:100420000E944606C701B801AE01475E5F4F0E94B9
:1004300075000E947105A096E6E00C948A13A0E274
:10044000B0E0E5E2F2E00C94621369837A838B8377
:100450009C832D833E834F835887CE010196BE0136
:10046000675F7F4F0E944606CE010596BE016F5E14
:100470007F4F0E9446069985923088F089898230A4
:10048000C8F0943019F4823051F404C0843029F457
:10049000923081F483EA90E0C6C0923049F420E0C3
:1004A0009A858A89981321E02A87CE010996BBC0D4
:1004B000823049F420E09A858A89981321E02A8BBA
:1004C000CE014196B0C02D843E844F8458886D88FB
:1004D0007E888F88988CEE24FF248701AA24BB2471
:1004E000650140E050E060E070E0E0E0F0E0C10174
:1004F00081709070892BE9F0E60CF71C081D191D1E
:100500009A01AB012A0D3B1D4C1D5D1D80E090E062
:10051000A0E0B0E0E614F7040805190520F481E036
:1005200090E0A0E0B0E0BA01A901480F591F6A1F8E
:100530007B1FAA0CBB1CCC1CDD1C97FE08C081E0F5
:1005400090E0A0E0B0E0A82AB92ACA2ADB2A3196B6
:10055000E032F10549F0660C771C881C991C569412
:10056000479437942794C3CFFA85EA892B893C892D
:100570008B859C85280F391F2E5F3F4F17C0CA01FE
:1005800081709070892B61F016950795F794E79428
:1005900080E090E0A0E0B0E8E82AF92A0A2B1B2BC3
:1005A00076956795579547952F5F3F4F77FDE7CF36
:1005B0000CC0440F551F661F771F17FD4160EE0CDE
:1005C000FF1C001F111F21503040403090E05907A0
:1005D00090E0690790E4790760F32B8F3C8FDB0193
:1005E000CA018F779070A070B07080349105A1051A
:1005F000B10561F447FD0AC0E114F10401051105DC
:1006000029F0405C5F4F6F4F7F4F40781A8EFE1786
:1006100011F081E08A8F4D8F5E8F6F8F78A383E01A
:10062000898FCE0149960E947105A096E2E10C9453
:100630007E13A8E1B0E0EFE1F3E00C946A13698364
:100640007A838B839C832D833E834F835887B9E0C5
:10065000EB2EF12CEC0EFD1ECE010196B7010E948F
:1006600046068E010F5E1F4FCE010596B8010E940F
:1006700046062985223008F47EC03989323010F4CC
:10068000B8017CC08A859A8989278A87243011F02D
:10069000223031F4231709F06EC063EA70E06EC0B7
:1006A000343039F41D861E861F86188A1C861B86E8
:1006B00004C0323021F484E08987B7015FC02B8504
:1006C0003C858B899C89281B390B3C872B87ED84C3
:1006D000FE840F851889AD88BE88CF88D88CEA142F
:1006E000FB040C051D0540F4EE0CFF1C001F111F40
:1006F000215030403C872B8720E030E040E050E044
:1007000080E090E0A0E0B0E460E070E0EA14FB0478
:100710000C051D0540F0282B392B4A2B5B2BEA18C2
:10072000FB080C091D09B695A79597958795EE0CC2
:10073000FF1C001F111F6F5F7F4F6F31710531F775
:10074000DA01C9018F779070A070B0708034910584
:10075000A105B10561F427FD0AC0E114F10401050A
:10076000110529F0205C3F4F4F4F5F4F20782D87B8
:100770003E874F87588BBE01675F7F4FCB010E943A
:1007800071056896EAE00C948613A8E1B0E0EBEC02
:10079000F3E00C946E1369837A838B839C832D839F
:1007A0003E834F83588789E0E82EF12CEC0EFD1E26
:1007B000CE010196B7010E9446068E010F5E1F4FC3
:1007C000CE010596B8010E9446068985823040F028
:1007D0008989823028F0C701B8010E94BE0601C095
:1007E0008FEF6896E6E00C948A13A8E1B0E0EBEF97
:1007F000F3E00C946E1369837A838B839C832D833F
:100800003E834F83588789E0E82EF12CEC0EFD1EC5
:10081000CE010196B7010E9446068E010F5E1F4F62
:10082000CE010596B8010E9446068985823040F0C7
:100830008989823028F0C701B8010E94BE0601C034
:100840008FEF6896E6E00C948A13A8E1B0E0EBE243
:10085000F4E00C946E1369837A838B839C832D83DD
:100860003E834F83588789E0E82EF12CEC0EFD1E65
:10087000CE010196B7010E9446068E010F5E1F4F02
:10088000CE010596B8010E9446068985823040F067
:100890008989823028F0C701B8010E94BE0601C0D4
:1008A00081E06896E6E00C948A13ACE0B0E0EBE5FA
:1008B000F4E00C94721369837A838B839C83CE015A
:1008C0000196BE016B5F7F4F0E9446068D8182308C
:1008D00061F1823050F1843021F48E81882351F10E
:1008E0002EC02F81388537FD20C06E812F31310514
:1008F0001CF06623F9F023C08EE190E0821B930B7D
:1009000029853A854B855C8504C056954795379572
:1009100027958A95D2F76623B1F05095409530958A
:1009200021953F4F4F4F5F4F0EC020E030E040E039
:1009300050E009C02FEF3FEF4FEF5FE704C020E02A
:1009400030E040E050E8B901CA012C96E2E00C9496
:100950008E13A8E0B0E0EFEAF4E00C946A137B0198
:100960008C01611571058105910519F482E0898377
:1009700060C083E089838EE1C82ED12CDC82CB82DB
:10098000ED82FE820F831887C801B7010E942205FD
:10099000FC013197F7FF3BC0222733272E1B3F0B6B
:1009A00057016801022E04C0D694C794B794A79447
:1009B0000A94D2F740E050E060E070E081E090E01F
:1009C000A0E0B0E004C0880F991FAA1FBB1F2A95A2
:1009D000D2F70197A109B1098E219F21A023B1234C
:1009E0000097A105B10521F041E050E060E070E022
:1009F0004A295B296C297D294D835E836F83788723
:100A00008EE190E08E1B9F0B9C838B8312C03097EE
:100A100081F00E2E04C0EE0CFF1C001F111F0A9463
:100A2000D2F7ED82FE820F831887CE1ADF0ADC82AE
:100A3000CB821A82CE0101960E9471052896EAE0C7
:100A40000C948613EF92FF920F931F937B018C01FE
:100A500080E0E81680E0F80681E0080780E01807EB
:100A600088F48FEFE816F1040105110531F028F044
:100A700088E090E0A0E0B0E017C080E090E0A0E067
:100A8000B0E012C080E0E81680E0F80680E00807D9
:100A900081E0180728F088E190E0A0E0B0E004C011
:100AA00080E190E0A0E0B0E020E230E040E050E003
:100AB000281B390B4A0B5B0B04C016950795F7945E
:100AC000E7948A95D2F7F701E555FF4F8081281BFF
:100AD000310941095109C9011F910F91FF90EF9010
:100AE0000895DF92EF92FF920F931F93FC01E48031
:100AF000F58006811781D1808081823048F480E0C2
:100B000090E0A0E1B0E0E82AF92A0A2B1B2BA5C04F
:100B1000843009F49FC0823021F4EE24FF24870141
:100B200005C0E114F1040105110519F4E0E0F0E05D
:100B300096C0628173819FEF623879070CF05BC0C9
:100B400022E83FEF261B370B2A3131052CF020E03D
:100B500030E040E050E02AC0B801A701022E04C0F6
:100B600076956795579547950A94D2F781E090E07E
:100B7000A0E0B0E004C0880F991FAA1FBB1F2A95F0
:100B8000D2F70197A109B1098E219F21A023B1239A
:100B90000097A105B10521F081E090E0A0E0B0E070
:100BA0009A01AB01282B392B4A2B5B2BDA01C901A7
:100BB0008F779070A070B07080349105A105B10559
:100BC00039F427FF09C0205C3F4F4F4F5F4F04C0EF
:100BD000215C3F4F4F4F5F4FE0E0F0E02030A0E05E
:100BE0003A07A0E04A07A0E45A0710F0E1E0F0E07D
:100BF00079018A0127C06038710564F5FB01E1586D
:100C0000FF4FD801C7018F779070A070B07080340B
:100C10009105A105B10539F4E7FE0DC080E490E02F
:100C2000A0E0B0E004C08FE390E0A0E0B0E0E80E08
:100C3000F91E0A1F1B1F17FF05C016950795F7948D
:100C4000E794319687E016950795F794E7948A958F
:100C5000D1F705C0EE24FF248701EFEFF0E06E2FFF
:100C6000679566276795902F9F77D794DD24D79453
:100C70008E2F8695492F462B582F5D29B701CA0123
:100C80001F910F91FF90EF90DF900895FC01DB0121
:100C9000408151812281622F6F7770E0221F2227CD
:100CA000221F9381892F880F822B282F30E0991FD4
:100CB0009927991F11969C93119721153105A9F534
:100CC000411551056105710511F482E037C082E8D4
:100CD0009FEF13969C938E9312979A01AB0167E056
:100CE000220F331F441F551F6A95D1F783E08C9361
:100CF0000DC0220F331F441F551F12968D919C91DA
:100D00001397019713969C938E931297203080E04F
:100D1000380780E0480780E4580758F314962D936D
:100D20003D934D935C93179708952F3F310579F4C8
:100D3000411551056105710519F484E08C930895FE
:100D400064FF03C081E08C9312C01C9210C02F5727
:100D5000304013963C932E93129783E08C9387E058
:100D6000440F551F661F771F8A95D1F7706414963C
:100D70004D935D936D937C93179708951F93DC01BA
:100D8000FB019C91923008F447C08081823008F4C6
:100D900043C0943051F411961C91843099F58181AF
:100DA000682F70E0611B71093FC0843021F09230E0
:100DB00031F48230B9F18181882389F12DC01196F7
:100DC0001C9111978230F1F081811817D9F4129695
:100DD0002D913C911397828193818217930794F010
:100DE00028173907BCF014968D919D910D90BC91F8
:100DF000A02D2481358146815781281739074A075C
:100E00005B0718F4112341F00AC082179307A40767
:100E1000B50740F4112319F061E070E005C06FEFF1
:100E20007FEF02C060E070E0CB011F910895DF9377
:100E3000CF93CDB7DEB7A7E2B0E0E7E2F0E0808184
:100E400080648C93A7E2B0E0E7E2F0E08081806804
:100E50008C93A6E2B0E0E6E2F0E0808180688C93BB
:100E6000A6E2B0E0E6E2F0E08081877F8C93A6E224
:100E7000B0E0E6E2F0E0808184608C93A6E2B0E02E
:100E8000E6E2F0E0808182608C93A6E2B0E0E6E2E8
:100E9000F0E0808181608C93CF91DF910895DF93A2
:100EA000CF930F92CDB7DEB789838981877089830D
:100EB000A7E2B0E0E7E2F0E08081807E8C93A7E2D9
:100EC000B0E0E7E2F0E090818981892B8C93A6E283
:100ED000B0E0E6E2F0E0808180648C93E6E2F0E04E
:100EE0008081882F90E0807190700097B9F3A6E21E
:100EF000B0E0E6E2F0E0808180618C93E4E2F0E033
:100F0000808191810F90CF91DF910895DF93CF93EE
:100F1000CDB7DEB783E063E041E00E94360883E0AE
:100F200063E040E00E942109CF91DF910895DF93B3
:100F3000CF93CDB7DEB783E063E041E00E942109A3
:100F4000CF91DF910895DF93CF93CDB7DEB783E0E4
:100F500063E040E00E942109CF91DF910895DF9383
:100F6000CF93CDB7DEB781E060E041E00E94360864
:100F700081E061E041E00E94360881E060E040E00D
:100F80000E94210981E061E040E00E942109CF91A7
:100F9000DF910895DF93CF9300D000D0CDB7DEB7B7
:100FA00089836A838981282F30E03C832B838B815E
:100FB0009C8181309105C9F02B813C812230310523
:100FC00021F18B819C81009751F581E060E041E047
:100FD0000E94210981E061E040E00E9421098A81AC
:100FE000882F90E00E94FB121AC081E060E040E090
:100FF0000E94210981E061E041E00E9421098A818B
:10100000882F90E00E94FB120AC081E060E040E07F
:101010000E94210981E061E040E00E9421090F90D7
:101020000F900F900F90CF91DF910895DF93CF93A2
:10103000CDB7DEB783E062E040E00E943608CF9192
:10104000DF910895DF93CF930F92CDB7DEB783E0A2
:1010500062E00E940C0A882319F081E0898301C0B4
:10106000198289810F90CF91DF910895DF93CF93FB
:1010700000D000D00F92CDB7DEB789836A834B834F
:101080008A81883008F0D5C08981843008F0D1C0C9
:101090008981282F30E03D832C838C819D81813094
:1010A000910509F443C02C813D81223031052CF497
:1010B0008C819D81009771F0BCC02C813D812230D4
:1010C000310509F45FC08C819D818330910509F45D
:1010D00085C0AFC08B818130A1F4AAE3B0E0EAE320
:1010E000F0E08081482F8A81282F30E081E090E075
:1010F000022E02C0880F991F0A94E2F7842B8C936A
:1011000098C0AAE3B0E0EAE3F0E08081482F8A814A
:10111000282F30E081E090E0022E02C0880F991F56
:101120000A94E2F7809584238C9383C08B8181306D
:10113000A1F4A7E3B0E0E7E3F0E08081482F8A81E3
:10114000282F30E081E090E0022E02C0880F991F26
:101150000A94E2F7842B8C936CC0A7E3B0E0E7E33A
:10116000F0E08081482F8A81282F30E081E090E0F4
:10117000022E02C0880F991F0A94E2F780958423FB
:101180008C9357C08B818130A1F4A4E3B0E0E4E3F9
:10119000F0E08081482F8A81282F30E081E090E0C4
:1011A000022E02C0880F991F0A94E2F7842B8C93B9
:1011B00040C0A4E3B0E0E4E3F0E08081482F8A81FE
:1011C000282F30E081E090E0022E02C0880F991FA6
:1011D0000A94E2F7809584238C932BC08B81813015
:1011E000A1F4A1E3B0E0E1E3F0E08081482F8A813F
:1011F000282F30E081E090E0022E02C0880F991F76
:101200000A94E2F7842B8C9314C0A1E3B0E0E1E3ED
:10121000F0E08081482F8A81282F30E081E090E043
:10122000022E02C0880F991F0A94E2F7809584234A
:101230008C930F900F900F900F900F90CF91DF91A4
:101240000895DF93CF9300D000D00F92CDB7DEB7D3
:1012500089836A834B838A81883008F0D5C089816D
:10126000843008F0D1C08981282F30E03D832C8361
:101270008C819D818130910509F443C02C813D8191
:10128000223031052CF48C819D81009771F0BCC017
:101290002C813D812230310509F45FC08C819D8114
:1012A0008330910509F485C0AFC08B818130A1F4F2
:1012B000ABE3B0E0EBE3F0E08081482F8A81282F98
:1012C00030E081E090E0022E02C0880F991F0A945E
:1012D000E2F7842B8C9398C0ABE3B0E0EBE3F0E053
:1012E0008081482F8A81282F30E081E090E0022E13
:1012F00002C0880F991F0A94E2F7809584238C938B
:1013000083C08B818130A1F4A8E3B0E0E8E3F0E092
:101310008081482F8A81282F30E081E090E0022EE2
:1013200002C0880F991F0A94E2F7842B8C936CC03B
:10133000A8E3B0E0E8E3F0E08081482F8A81282F1D
:1013400030E081E090E0022E02C0880F991F0A94DD
:10135000E2F7809584238C9357C08B818130A1F470
:10136000A5E3B0E0E5E3F0E08081482F8A81282FF3
:1013700030E081E090E0022E02C0880F991F0A94AD
:10138000E2F7842B8C9340C0A5E3B0E0E5E3F0E006
:101390008081482F8A81282F30E081E090E0022E62
:1013A00002C0880F991F0A94E2F7809584238C93DA
:1013B0002BC08B818130A1F4A2E3B0E0E2E3F0E046
:1013C0008081482F8A81282F30E081E090E0022E32
:1013D00002C0880F991F0A94E2F7842B8C9314C0E3
:1013E000A2E3B0E0E2E3F0E08081482F8A81282F79
:1013F00030E081E090E0022E02C0880F991F0A942D
:10140000E2F7809584238C930F900F900F900F90AC
:101410000F90CF91DF910895DF93CF9300D000D04C
:101420000F92CDB7DEB78A836B8319828B818830A8
:1014300008F084C08A81843008F080C08A81282F17
:1014400030E03D832C834C815D814130510579F141
:101450008C819D818230910534F42C813D81211550
:10146000310569F06BC04C815D8142305105B9F1A5
:101470008C819D818330910509F449C05FC0E9E307
:10148000F0E08081282F30E08B81882F90E0A90147
:1014900002C0559547958A95E2F7CA018170907010
:1014A000882319F081E0898349C0198247C0E6E3A7
:1014B000F0E08081282F30E08B81882F90E0A90117
:1014C00002C0559547958A95E2F7CA0181709070E0
:1014D000882319F081E0898331C019822FC0E3E3AA
:1014E000F0E08081282F30E08B81882F90E0A901E7
:1014F00002C0559547958A95E2F7CA0181709070B0
:10150000882319F081E0898319C0198217C0E0E3AC
:10151000F0E08081282F30E08B81882F90E0A901B6
:1015200002C0559547958A95E2F7CA01817090707F
:10153000882319F081E0898301C0198289810F9085
:101540000F900F900F900F90CF91DF910895DF9340
:10155000CF9300D000D0CDB7DEB789836A8389816D
:10156000843090F58981282F30E03C832B838B8158
:101570009C8181309105D1F02B813C812230310555
:101580002CF48B819C81009761F01EC02B813C81E3
:101590002230310581F08B819C818330910581F06F
:1015A00013C0EAE3F0E08A8180830EC0E7E3F0E055
:1015B0008A81808309C0E4E3F0E08A81808304C0EB
:1015C000E1E3F0E08A8180830F900F900F900F90FD
:1015D000CF91DF910895DF93CF9300D000D0CDB7A6
:1015E000DEB789836A838981843090F58981282FC9
:1015F00030E03C832B838B819C8181309105D1F03D
:101600002B813C81223031052CF48B819C81009709
:1016100061F01EC02B813C812230310581F08B812D
:101620009C818330910581F013C0EBE3F0E08A8167
:1016300080830EC0E8E3F0E08A81808309C0E5E39F
:10164000F0E08A81808304C0E2E3F0E08A81808355
:101650000F900F900F900F90CF91DF910895DF932F
:10166000CF9300D000D0CDB7DEB78A8319828A81AC
:10167000843090F58A81282F30E03C832B838B8146
:101680009C8181309105D1F02B813C812230310544
:101690002CF48B819C81009761F01EC02B813C81D2
:1016A0002230310581F08B819C818330910581F05E
:1016B00013C0E9E3F0E0808189830EC0E6E3F0E047
:1016C0008081898309C0E3E3F0E08081898304C0DD
:1016D000E0E3F0E08081898389810F900F900F9083
:1016E0000F90CF91DF910895DF93CF93CDB7DEB701
:1016F0002E970FB6F894DEBF0FBECDBF83E060E03B
:1017000041E00E94360883E061E041E00E94360833
:1017100082E06FEF0E94A70A80E090E0A0EAB1E4C7
:101720008B879C87AD87BE876B857C858D859E85E5
:1017300020E030E04AE755E40E941F02DC01CB01C3
:101740008F839887A987BA876F81788589859A85DD
:1017500020E030E040E85FE30E94250488232CF479
:1017600081E090E09E838D833FC06F81788589857D
:101770009A8520E03FEF4FE757E40E94C503181613
:101780004CF56B857C858D859E8520E030E040E2C0
:1017900051E40E941F02DC01CB01BC01CD010E947B
:1017A0004900DC01CB019E838D830FC080E991E06D
:1017B0009C838B838B819C810197F1F79C838B8326
:1017C0008D819E8101979E838D838D819E8100975F
:1017D00069F714C06F81788589859A850E944900D0
:1017E000DC01CB019E838D838D819E819A838983C9
:1017F00089819A810197F1F79A83898388E30E940E
:10180000100C8CE00E94100C81E00E94100C2E96AF
:101810000FB6F894DEBF0FBECDBFCF91DF91089514
:10182000DF93CF93CDB7DEB7E9970FB6F894DEBF5D
:101830000FBECDBF89AF83E060E040E00E94210988
:1018400080E090E0A0E8BFE38DAB9EABAFABB8AF5C
:101850006DA97EA98FA998AD20E030E04AE755E454
:101860000E941F02DC01CB0189AB9AABABABBCABD6
:1018700069A97AA98BA99CA920E030E040E85FE340
:101880000E94250488232CF481E090E098AB8FA778
:101890003FC069A97AA98BA99CA920E03FEF4FE737
:1018A00057E40E94C50318164CF56DA97EA98FA9AF
:1018B00098AD20E030E040E251E40E941F02DC01DC
:1018C000CB01BC01CD010E944900DC01CB0198ABEA
:1018D0008FA70FC080E991E09EA78DA78DA59EA53B
:1018E0000197F1F79EA78DA78FA598A9019798ABAF
:1018F0008FA78FA598A9009769F714C069A97AA93D
:101900008BA99CA90E944900DC01CB0198AB8FA751
:101910008FA598A99CA78BA78BA59CA50197F1F7EC
:101920009CA78BA783E061E041E00E94210980E051
:1019300090E0A0E8BFE38FA398A7A9A7BAA76FA1DB
:1019400078A589A59AA520E030E04AE755E40E94F1
:101950001F02DC01CB018BA39CA3ADA3BEA36BA193
:101960007CA18DA19EA120E030E040E85FE30E94D1
:10197000250488232CF481E090E09AA389A33FC03A
:101980006BA17CA18DA19EA120E03FEF4FE757E422
:101990000E94C50318164CF56FA178A589A59AA5D4
:1019A00020E030E040E251E40E941F02DC01CB0164
:1019B000BC01CD010E944900DC01CB019AA389A39F
:1019C0000FC080E991E098A38F8F8F8D98A1019728
:1019D000F1F798A38F8F89A19AA101979AA389A360
:1019E00089A19AA1009769F714C06BA17CA18DA170
:1019F0009EA10E944900DC01CB019AA389A389A181
:101A00009AA19E8F8D8F8D8D9E8D0197F1F79E8F60
:101A10008D8F82E069AD0E94EB0A80E090E0A0E843
:101A2000BFE3898F9A8FAB8FBC8F698D7A8D8B8D39
:101A30009C8D20E030E04AE755E40E941F02DC0163
:101A4000CB018D8B9E8BAF8BB88F6D897E898F89F3
:101A5000988D20E030E040E85FE30E942504882371
:101A60002CF481E090E09C8B8B8B3FC06D897E894C
:101A70008F89988D20E03FEF4FE757E40E94C50320
:101A800018164CF5698D7A8D8B8D9C8D20E030E099
:101A900040E251E40E941F02DC01CB01BC01CD01F8
:101AA0000E944900DC01CB019C8B8B8B0FC080E92D
:101AB00091E09A8B898B89899A890197F1F79A8BA2
:101AC000898B8B899C8901979C8B8B8B8B899C89BB
:101AD000009769F714C06D897E898F89988D0E945F
:101AE0004900DC01CB019C8B8B8B8B899C89988B6B
:101AF0008F878F8598890197F1F7988B8F8783E07F
:101B000061E040E00E94210980E090E0A0E8BFE3AE
:101B10008B879C87AD87BE876B857C858D859E85F1
:101B200020E030E04AE755E40E941F02DC01CB01CF
:101B30008F839887A987BA876F81788589859A85E9
:101B400020E030E040E85FE30E94250488232CF485
:101B500081E090E09E838D833FC06F817885898589
:101B60009A8520E03FEF4FE757E40E94C50318161F
:101B70004CF56B857C858D859E8520E030E040E2CC
:101B800051E40E941F02DC01CB01BC01CD010E9487
:101B90004900DC01CB019E838D830FC080E991E079
:101BA0009C838B838B819C810197F1F79C838B8332
:101BB0008D819E8101979E838D838D819E8100976B
:101BC00069F714C06F81788589859A850E944900DC
:101BD000DC01CB019E838D838D819E819A838983D5
:101BE00089819A810197F1F79A838983E9960FB6E3
:101BF000F894DEBF0FBECDBFCF91DF910895DF9384
:101C0000CF93CDB7DEB7E9970FB6F894DEBF0FBE1E
:101C1000CDBF89AF83E060E041E00E94210980E010
:101C200090E0A0E8BFE38DAB9EABAFABB8AF6DA9C2
:101C30007EA98FA998AD20E030E04AE755E40E94E4
:101C40001F02DC01CB0189AB9AABABABBCAB69A982
:101C50007AA98BA99CA920E030E040E85FE30E94CC
:101C6000250488232CF481E090E098AB8FA73FC037
:101C700069A97AA98BA99CA920E03FEF4FE757E417
:101C80000E94C50318164CF56DA97EA98FA998ADC1
:101C900020E030E040E251E40E941F02DC01CB0171
:101CA000BC01CD010E944900DC01CB0198AB8FA79C
:101CB0000FC080E991E09EA78DA78DA59EA50197F5
:101CC000F1F79EA78DA78FA598A9019798AB8FA72D
:101CD0008FA598A9009769F714C069A97AA98BA95B
:101CE0009CA90E944900DC01CB0198AB8FA78FA56E
:101CF00098A99CA78BA78BA59CA50197F1F79CA7FA
:101D00008BA783E061E041E00E94210980E090E040
:101D1000A0E8BFE38FA398A7A9A7BAA76FA178A54A
:101D200089A59AA520E030E04AE755E40E941F0209
:101D3000DC01CB018BA39CA3ADA3BEA36BA17CA1B3
:101D40008DA19EA120E030E040E85FE30E942504E1
:101D500088232CF481E090E09AA389A33FC06BA173
:101D60007CA18DA19EA120E03FEF4FE757E40E94A8
:101D7000C50318164CF56FA178A589A59AA520E092
:101D800030E040E251E40E941F02DC01CB01BC01C3
:101D9000CD010E944900DC01CB019AA389A30FC0A9
:101DA00080E991E098A38F8F8F8D98A10197F1F72B
:101DB00098A38F8F89A19AA101979AA389A389A13A
:101DC0009AA1009769F714C06BA17CA18DA19EA177
:101DD0000E944900DC01CB019AA389A389A19AA1A1
:101DE0009E8F8D8F8D8D9E8D0197F1F79E8F8D8F9C
:101DF00082E069AD0E94EB0A80E090E0A0E8BFE3DA
:101E0000898F9A8FAB8FBC8F698D7A8D8B8D9C8DCE
:101E100020E030E04AE755E40E941F02DC01CB01DC
:101E20008D8B9E8BAF8BB88F6D897E898F89988DB6
:101E300020E030E040E85FE30E94250488232CF492
:101E400081E090E09C8B8B8B3FC06D897E898F8970
:101E5000988D20E03FEF4FE757E40E94C503181626
:101E60004CF5698D7A8D8B8D9C8D20E030E040E2C1
:101E700051E40E941F02DC01CB01BC01CD010E9494
:101E80004900DC01CB019C8B8B8B0FC080E991E07A
:101E90009A8B898B89899A890197F1F79A8B898B1B
:101EA0008B899C8901979C8B8B8B8B899C89009754
:101EB00069F714C06D897E898F89988D0E944900C9
:101EC000DC01CB019C8B8B8B8B899C89988B8F87BA
:101ED0008F8598890197F1F7988B8F8783E061E070
:101EE00040E00E94210980E090E0A0E8BFE38B87FA
:101EF0009C87AD87BE876B857C858D859E8520E020
:101F000030E04AE755E40E941F02DC01CB018F83D9
:101F10009887A987BA876F81788589859A8520E017
:101F200030E040E85FE30E94250488232CF481E040
:101F300090E09E838D833FC06F81788589859A85E7
:101F400020E03FEF4FE757E40E94C50318164CF519
:101F50006B857C858D859E8520E030E040E251E4F4
:101F60000E941F02DC01CB01BC01CD010E9449008F
:101F7000DC01CB019E838D830FC080E991E09C83BF
:101F80008B838B819C810197F1F79C838B838D815F
:101F90009E8101979E838D838D819E81009769F735
:101FA00014C06F81788589859A850E944900DC017B
:101FB000CB019E838D838D819E819A8389838981C4
:101FC0009A810197F1F79A838983E9960FB6F8947D
:101FD000DEBF0FBECDBFCF91DF910895DF93CF93CA
:101FE00000D00F92CDB7DEB79B838A8319820EC0D3
:101FF0008981282F30E08A819B81FC01E20FF31F49
:1020000080810E94FF0D89818F5F89838981282FBC
:1020100030E08A819B81FC01E20FF31F80818823DD
:1020200039F70F900F900F90CF91DF910895DF93C4
:10203000CF9300D000D00F92CDB7DEB78A836B83E9
:102040008A81282F30E03D832C838C819D818130D3
:102050009105C1F02C813D81223031052CF48C8119
:102060009D81009761F019C02C813D81223031059E
:1020700069F08C819D818330910561F00EC08B8168
:1020800089830BC08B81805C898307C08B81805FD3
:10209000898303C08B81805B8983898180680E94EA
:1020A000100C0F900F900F900F900F90CF91DF9129
:1020B0000895DF93CF9300D000D0CDB7DEB78983EA
:1020C0006A835C834B8389816A810E9417108B81AC
:1020D0009C810E94EE0F0F900F900F900F90CF9168
:1020E000DF910895DF93CF93CDB7DEB762970FB638
:1020F000F894DEBF0FBECDBF9A8B898B89899A89F0
:102100009E012F5F3F4FB9014AE050E00E949913B2
:10211000CE0101960E94EE0F62960FB6F894DEBFD4
:102120000FBECDBFCF91DF910895DF93CF93CDB791
:10213000DEB781E00E94100CCF91DF910895DF930C
:10214000CF9300D000D0CDB7DEB71C821B821A829D
:10215000198280E00E944F079A83898389819A813E
:10216000CC01A0E0B0E024E630E040E050E0BC016B
:10217000CD010E942F13DC01CB01BC01CD010E94D7
:10218000A904DC01CB01BC01CD012AE037ED43E21B
:1021900050E40E941F02DC01CB01BC01CD0124E10F
:1021A0003EEA43E255E40E941903DC01CB01BC0185
:1021B000CD010E944900DC01CB01882F90E09C8377
:1021C0008B838B819C810F900F900F900F90CF91FC
:1021D000DF910895DF93CF93CDB7DEB781E065E05F
:1021E00041E00E94360881E066E041E00E94360846
:1021F00081E067E041E00E94360881E065E040E070
:102200000E94210981E066E040E00E94210981E00E
:1022100067E040E00E942109CF91DF910895DF93AC
:10222000CF930F92CDB7DEB7898381E0698141E01A
:102230000E9421090F90CF91DF910895DF93CF93F2
:102240000F92CDB7DEB7898381E0698140E00E94BB
:1022500021090F90CF91DF910895DF93CF9300D0A4
:102260000F92CDB7DEB71B821A82198281E00E94DD
:102270004F079A83898389819A81CC01A0E0B0E0DD
:1022800026E930E040E050E0BC01CD010E942F1370
:10229000DC01CB01BC01CD010E94A904DC01CB0112
:1022A000BC01CD012AE037ED43E250E40E941F0259
:1022B000DC01CB01BC01CD0120E030ED4FEB54E45B
:1022C0000E941903DC01CB01BC01CD010E94490031
:1022D000DC01CB018B838B810F900F900F90CF91FE
:1022E000DF910895DF93CF9300D0CDB7DEB70E9482
:1022F0009F109A83898389819A818031910550F456
:1023000085E00E940F1187E00E940F1186E00E9475
:102310000F1131C089819A818031910578F08981CE
:102320009A818333910550F485E00E940F1187E074
:102330000E941E1186E00E940F111DC089819A81A2
:102340008333910578F089819A818734910550F41F
:1023500085E00E940F1187E00E941E1186E00E9416
:102360001E1109C085E00E941E1187E00E941E1107
:1023700086E00E941E110F900F90CF91DF9108957B
:10238000DF93CF930F92CDB7DEB70E942D118983D3
:102390008981893128F482E060E00E94CA0725C063
:1023A0008981893140F089818E3128F480E069E1AA
:1023B0000E94CA071AC089818E3140F08981833218
:1023C00028F480E062E30E94CA070FC0898183324B
:1023D00040F08981883228F480E06BE40E94CA07CB
:1023E00004C080E064E60E94CA070F90CF91DF919D
:1023F0000895DF93CF9300D0CDB7DEB70E942D11A3
:102400008A830E949F1089838091AC018130D1F42E
:102410001092AE018091AD01882329F40E9495109D
:1024200081E08093AD0120E630E080E060E0A9012A
:102430000E94591021E730E081E060E0A9010E948C
:102440005910A7C01092AD018091AE01882329F4E4
:102450000E94951081E08093AE018A81893140F419
:1024600020E830E080E062E0A9010E94591007C036
:102470002BE830E080E062E0A9010E9459108A81D7
:10248000843680F026E930E081E060E0A9010E9416
:10249000591081E065E00E9417108A81882F90E032
:1024A0000E9472108A818A30C0F426E930E081E00F
:1024B00060E0A9010E9459102CE930E081E066E05B
:1024C000A9010E94591081E065E00E9417108A81DD
:1024D000882F90E00E94721017C026E930E081E05A
:1024E00060E0A9010E9459102CE930E081E067E02A
:1024F000A9010E94591081E065E00E9417108A81AD
:10250000882F90E00E9472108981843681F42EE930
:1025100030E081E068E0A9010E94591081E06CE0A0
:102520000E9417108981882F90E00E947210898183
:102530008A30C0F42EE930E081E068E0A9010E9411
:1025400059102CE930E081E06DE0A9010E9459109A
:1025500081E06CE00E9417108981882F90E00E9432
:10256000721017C02EE930E081E068E0A9010E94F6
:1025700059102CE930E081E06EE0A9010E94591069
:1025800081E06CE00E9417108981882F90E00E9402
:1025900072100F900F90CF91DF910895DF93CF933A
:1025A000CDB7DEB70E9422088093AC018091AC01C8
:1025B000882319F00E94970702C00E94A307CF91B9
:1025C000DF910895DF93CF93CDB7DEB70E94170751
:1025D0000E9486070E94AF070E9416080E94740B93
:1025E0000E94EA100E9472110E94C0110E94F9110B
:1025F0000E94CE12F7CFDF93CF930F92CDB7DEB705
:1026000089838981482F50E0CA019C01220F331F22
:10261000C9019695982F882797958795821B930BCC
:10262000840F951F24E630E0B9010E944E13CB01C0
:102630008983E2E5F0E01082ECE5F0E089818083B7
:10264000A7E3B0E0E7E3F0E0808188608C93E3E506
:10265000F0E08DE680830F90CF91DF910895629F27
:10266000D001739FF001829FE00DF11D649FE00D8A
:10267000F11D929FF00D839FF00D749FF00D659FEB
:10268000F00D9927729FB00DE11DF91F639FB00DEA
:10269000E11DF91FBD01CF0111240895AA1BBB1B29
:1026A00051E107C0AA1FBB1FA617B70710F0A61B52
:1026B000B70B881F991F5A95A9F780959095BC0173
:1026C000CD0108952F923F924F925F926F927F9229
:1026D0008F929F92AF92BF92CF92DF92EF92FF9232
:1026E0000F931F93CF93DF93CDB7DEB7CA1BDB0BDE
:1026F0000FB6F894DEBF0FBECDBF09942A88398883
:1027000048885F846E847D848C849B84AA84B98489
:10271000C884DF80EE80FD800C811B81AA81B98195
:10272000CE0FD11D0FB6F894DEBF0FBECDBFED01A9
:102730000895FB019F01E8944230C4F04532B4F49F
:102740004A3029F497FB1EF4909581959F4F642F92
:1027500077270E944E13805D8A330CF0895D819348
:10276000CB010097A1F716F45DE251931082C901E5
:102770000C94BA13DC01FC01672F71917723E1F708
:10278000329704C07C916D9370836291AE17BF073E
:08279000C8F30895F894FFCF8F
:10279800637269746963616C20616C65727421216C
:1027A80000666C616D6520646574656374656400BA
:1027B80046414E204953204F46460046414E204947
:1027C80053204F4E200054454D503D0020004C44AE
:1027D800523D00000000000000000000010202035A
:1027E800030303040404040404040405050505059F
:1027F800050505050505050505050506060606067C
:102808000606060606060606060606060606060660
:10281800060606060606060606060607070707074B
:102828000707070707070707070707070707070730
:102838000707070707070707070707070707070720
:102848000707070707070707070707070707070710
:1028580007070707070707070707070808080808FB
:1028680008080808080808080808080808080808E0
:1028780008080808080808080808080808080808D0
:1028880008080808080808080808080808080808C0
:1028980008080808080808080808080808080808B0
:1028A80008080808080808080808080808080808A0
:1028B8000808080808080808080808080808080890
:1028C8000808080808080808080808080808080880
:0C28D8000808080808080808080808009C
:00000001FF
